:100000000C9434000C943E000C943E000C943E0082
:100010000C943E000C943E000C943E000C943E0068
:100020000C943E000C943E000C943E000C943E0058
:100030000C943E000C943E000C943E000C943E0048
:100040000C943E000C943E000C943E000C943E0038
:100050000C943E000C943E000C943E000C943E0028
:100060000C943E000C943E0011241FBECFEFD8E04C
:10007000DEBFCDBF0E9440000C9474000C940000C1
:1000800082E084B91AB88CE08BB989B18C70B1F474
:1000900082E085B92FEF81E19AE7215080409040BE
:1000A000E1F700C0000015B82FEF81E19AE7215079
:1000B00080409040E1F700C00000E7CF82E085B9C2
:1000C0002FEF81EE94E0215080409040E1F700C096
:1000D000000015B82FEF81EE94E021508040904051
:0C00E000E1F700C00000D1CFF894FFCF82
:00000001FF
